{"abi":[{"type":"constructor","inputs":[{"name":"_usdc","type":"address","internalType":"address"},{"name":"_admin","type":"address","internalType":"address"},{"name":"_oracle","type":"address","internalType":"address"}],"stateMutability":"nonpayable"},{"type":"function","name":"DEFAULT_ADMIN_ROLE","inputs":[],"outputs":[{"name":"","type":"bytes32","internalType":"bytes32"}],"stateMutability":"view"},{"type":"function","name":"ORACLE_ROLE","inputs":[],"outputs":[{"name":"","type":"bytes32","internalType":"bytes32"}],"stateMutability":"view"},{"type":"function","name":"bounties","inputs":[{"name":"","type":"bytes32","internalType":"bytes32"}],"outputs":[{"name":"enterprise","type":"address","internalType":"address"},{"name":"totalDeposit","type":"uint256","internalType":"uint256"},{"name":"remaining","type":"uint256","internalType":"uint256"},{"name":"rewardPerTask","type":"uint256","internalType":"uint256"},{"name":"totalTasks","type":"uint256","internalType":"uint256"},{"name":"completedTasks","type":"uint256","internalType":"uint256"},{"name":"active","type":"bool","internalType":"bool"}],"stateMutability":"view"},{"type":"function","name":"claimBalance","inputs":[],"outputs":[],"stateMutability":"nonpayable"},{"type":"function","name":"closeBounty","inputs":[{"name":"datasetId","type":"bytes32","internalType":"bytes32"}],"outputs":[],"stateMutability":"nonpayable"},{"type":"function","name":"depositBounty","inputs":[{"name":"datasetId","type":"bytes32","internalType":"bytes32"},{"name":"amount","type":"uint256","internalType":"uint256"},{"name":"rewardPerTask","type":"uint256","internalType":"uint256"},{"name":"totalTasks","type":"uint256","internalType":"uint256"}],"outputs":[],"stateMutability":"nonpayable"},{"type":"function","name":"distributePayment","inputs":[{"name":"datasetId","type":"bytes32","internalType":"bytes32"},{"name":"worker","type":"address","internalType":"address"}],"outputs":[],"stateMutability":"nonpayable"},{"type":"function","name":"feeBps","inputs":[],"outputs":[{"name":"","type":"uint256","internalType":"uint256"}],"stateMutability":"view"},{"type":"function","name":"getBounty","inputs":[{"name":"datasetId","type":"bytes32","internalType":"bytes32"}],"outputs":[{"name":"","type":"tuple","internalType":"struct BountyEscrow.Bounty","components":[{"name":"enterprise","type":"address","internalType":"address"},{"name":"totalDeposit","type":"uint256","internalType":"uint256"},{"name":"remaining","type":"uint256","internalType":"uint256"},{"name":"rewardPerTask","type":"uint256","internalType":"uint256"},{"name":"totalTasks","type":"uint256","internalType":"uint256"},{"name":"completedTasks","type":"uint256","internalType":"uint256"},{"name":"active","type":"bool","internalType":"bool"}]}],"stateMutability":"view"},{"type":"function","name":"getRoleAdmin","inputs":[{"name":"role","type":"bytes32","internalType":"bytes32"}],"outputs":[{"name":"","type":"bytes32","internalType":"bytes32"}],"stateMutability":"view"},{"type":"function","name":"grantRole","inputs":[{"name":"role","type":"bytes32","internalType":"bytes32"},{"name":"account","type":"address","internalType":"address"}],"outputs":[],"stateMutability":"nonpayable"},{"type":"function","name":"hasRole","inputs":[{"name":"role","type":"bytes32","internalType":"bytes32"},{"name":"account","type":"address","internalType":"address"}],"outputs":[{"name":"","type":"bool","internalType":"bool"}],"stateMutability":"view"},{"type":"function","name":"pendingBalance","inputs":[{"name":"worker","type":"address","internalType":"address"}],"outputs":[{"name":"","type":"uint256","internalType":"uint256"}],"stateMutability":"view"},{"type":"function","name":"protocolFees","inputs":[],"outputs":[{"name":"","type":"uint256","internalType":"uint256"}],"stateMutability":"view"},{"type":"function","name":"renounceRole","inputs":[{"name":"role","type":"bytes32","internalType":"bytes32"},{"name":"callerConfirmation","type":"address","internalType":"address"}],"outputs":[],"stateMutability":"nonpayable"},{"type":"function","name":"revokeRole","inputs":[{"name":"role","type":"bytes32","internalType":"bytes32"},{"name":"account","type":"address","internalType":"address"}],"outputs":[],"stateMutability":"nonpayable"},{"type":"function","name":"setFeeBps","inputs":[{"name":"_feeBps","type":"uint256","internalType":"uint256"}],"outputs":[],"stateMutability":"nonpayable"},{"type":"function","name":"supportsInterface","inputs":[{"name":"interfaceId","type":"bytes4","internalType":"bytes4"}],"outputs":[{"name":"","type":"bool","internalType":"bool"}],"stateMutability":"view"},{"type":"function","name":"usdc","inputs":[],"outputs":[{"name":"","type":"address","internalType":"contract IERC20"}],"stateMutability":"view"},{"type":"function","name":"withdrawFees","inputs":[{"name":"to","type":"address","internalType":"address"}],"outputs":[],"stateMutability":"nonpayable"},{"type":"function","name":"workerBalance","inputs":[{"name":"","type":"address","internalType":"address"}],"outputs":[{"name":"","type":"uint256","internalType":"uint256"}],"stateMutability":"view"},{"type":"event","name":"BalanceClaimed","inputs":[{"name":"worker","type":"address","indexed":true,"internalType":"address"},{"name":"amount","type":"uint256","indexed":false,"internalType":"uint256"}],"anonymous":false},{"type":"event","name":"BountyClosed","inputs":[{"name":"datasetId","type":"bytes32","indexed":true,"internalType":"bytes32"},{"name":"refunded","type":"uint256","indexed":false,"internalType":"uint256"}],"anonymous":false},{"type":"event","name":"BountyDeposited","inputs":[{"name":"datasetId","type":"bytes32","indexed":true,"internalType":"bytes32"},{"name":"enterprise","type":"address","indexed":true,"internalType":"address"},{"name":"amount","type":"uint256","indexed":false,"internalType":"uint256"},{"name":"rewardPerTask","type":"uint256","indexed":false,"internalType":"uint256"},{"name":"totalTasks","type":"uint256","indexed":false,"internalType":"uint256"}],"anonymous":false},{"type":"event","name":"FeeWithdrawn","inputs":[{"name":"to","type":"address","indexed":true,"internalType":"address"},{"name":"amount","type":"uint256","indexed":false,"internalType":"uint256"}],"anonymous":false},{"type":"event","name":"PaymentDistributed","inputs":[{"name":"worker","type":"address","indexed":true,"internalType":"address"},{"name":"amount","type":"uint256","indexed":false,"internalType":"uint256"}],"anonymous":false},{"type":"event","name":"RoleAdminChanged","inputs":[{"name":"role","type":"bytes32","indexed":true,"internalType":"bytes32"},{"name":"previousAdminRole","type":"bytes32","indexed":true,"internalType":"bytes32"},{"name":"newAdminRole","type":"bytes32","indexed":true,"internalType":"bytes32"}],"anonymous":false},{"type":"event","name":"RoleGranted","inputs":[{"name":"role","type":"bytes32","indexed":true,"internalType":"bytes32"},{"name":"account","type":"address","indexed":true,"internalType":"address"},{"name":"sender","type":"address","indexed":true,"internalType":"address"}],"anonymous":false},{"type":"event","name":"RoleRevoked","inputs":[{"name":"role","type":"bytes32","indexed":true,"internalType":"bytes32"},{"name":"account","type":"address","indexed":true,"internalType":"address"},{"name":"sender","type":"address","indexed":true,"internalType":"address"}],"anonymous":false},{"type":"event","name":"TaskCompleted","inputs":[{"name":"datasetId","type":"bytes32","indexed":true,"internalType":"bytes32"},{"name":"worker","type":"address","indexed":true,"internalType":"address"},{"name":"reward","type":"uint256","indexed":false,"internalType":"uint256"},{"name":"completedTasks","type":"uint256","indexed":false,"internalType":"uint256"}],"anonymous":false},{"type":"error","name":"AccessControlBadConfirmation","inputs":[]},{"type":"error","name":"AccessControlUnauthorizedAccount","inputs":[{"name":"account","type":"address","internalType":"address"},{"name":"neededRole","type":"bytes32","internalType":"bytes32"}]},{"type":"error","name":"ReentrancyGuardReentrantCall","inputs":[]},{"type":"error","name":"SafeERC20FailedOperation","inputs":[{"name":"token","type":"address","internalType":"address"}]}],"bytecode":{"object":"0x60a060405261012c600155348015610015575f5ffd5b50604051612b1c380380612b1c83398181016040528101906100379190610414565b600161005561004a61022560201b60201c565b61024e60201b60201c565b5f01819055505f73ffffffffffffffffffffffffffffffffffffffff168373ffffffffffffffffffffffffffffffffffffffff16036100c9576040517f08c379a00000000000000000000000000000000000000000000000000000000081526004016100c0906104be565b60405180910390fd5b5f73ffffffffffffffffffffffffffffffffffffffff168273ffffffffffffffffffffffffffffffffffffffff1603610137576040517f08c379a000000000000000000000000000000000000000000000000000000000815260040161012e90610526565b60405180910390fd5b5f73ffffffffffffffffffffffffffffffffffffffff168173ffffffffffffffffffffffffffffffffffffffff16036101a5576040517f08c379a000000000000000000000000000000000000000000000000000000000815260040161019c9061058e565b60405180910390fd5b8273ffffffffffffffffffffffffffffffffffffffff1660808173ffffffffffffffffffffffffffffffffffffffff16815250506101eb5f5f1b8361025760201b60201c565b5061021c7f68e79a7bf1e0bc45d0a330c573bc367f9cf464fd326078812f301165fbda4ef18261025760201b60201c565b505050506105ac565b5f7f9b779b17422d0df92223018b32b4d1fa46e071723d6817e2486d003becc55f005f1b905090565b5f819050919050565b5f610268838361034c60201b60201c565b6103425760015f5f8581526020019081526020015f205f015f8473ffffffffffffffffffffffffffffffffffffffff1673ffffffffffffffffffffffffffffffffffffffff1681526020019081526020015f205f6101000a81548160ff0219169083151502179055506102df6103af60201b60201c565b73ffffffffffffffffffffffffffffffffffffffff168273ffffffffffffffffffffffffffffffffffffffff16847f2f8788117e7eff1d82e926ec794901d17c78024a50270940304540a733656f0d60405160405180910390a460019050610346565b5f90505b92915050565b5f5f5f8481526020019081526020015f205f015f8373ffffffffffffffffffffffffffffffffffffffff1673ffffffffffffffffffffffffffffffffffffffff1681526020019081526020015f205f9054906101000a900460ff16905092915050565b5f33905090565b5f5ffd5b5f73ffffffffffffffffffffffffffffffffffffffff82169050919050565b5f6103e3826103ba565b9050919050565b6103f3816103d9565b81146103fd575f5ffd5b50565b5f8151905061040e816103ea565b92915050565b5f5f5f6060848603121561042b5761042a6103b6565b5b5f61043886828701610400565b935050602061044986828701610400565b925050604061045a86828701610400565b9150509250925092565b5f82825260208201905092915050565b7f426f756e7479457363726f773a207a65726f20757364630000000000000000005f82015250565b5f6104a8601783610464565b91506104b382610474565b602082019050919050565b5f6020820190508181035f8301526104d58161049c565b9050919050565b7f426f756e7479457363726f773a207a65726f2061646d696e00000000000000005f82015250565b5f610510601883610464565b915061051b826104dc565b602082019050919050565b5f6020820190508181035f83015261053d81610504565b9050919050565b7f426f756e7479457363726f773a207a65726f206f7261636c65000000000000005f82015250565b5f610578601983610464565b915061058382610544565b602082019050919050565b5f6020820190508181035f8301526105a58161056c565b9050919050565b6080516125356105e75f395f8181610581015281816106e40152818161096c01528181610acc01528181610f7501526111d601526125355ff3fe608060405234801561000f575f5ffd5b5060043610610135575f3560e01c806336568abe116100b657806391d148541161007a57806391d1485414610337578063a217fddf14610367578063bf5522da14610385578063c4c25001146103bb578063d547741f146103d7578063f24d7a8d146103f357610135565b806336568abe146102815780633736f85d1461029d5780633e413bee146102cd57806372c27b62146102eb57806378904a351461030757610135565b80632417395c116100fd5780632417395c146101dd578063248a9ca31461020d57806324a9d8531461023d5780632f2ff15d1461025b57806330509bca1461027757610135565b806301ffc9a71461013957806307e2cea51461016957806310d598f214610187578063164e68de146101a35780631ad8b03b146101bf575b5f5ffd5b610153600480360381019061014e919061191f565b61040f565b6040516101609190611964565b60405180910390f35b610171610488565b60405161017e9190611995565b60405180910390f35b6101a1600480360381019061019c91906119d8565b6104ac565b005b6101bd60048036038101906101b89190611a5d565b61060c565b005b6101c7610783565b6040516101d49190611aa0565b60405180910390f35b6101f760048036038101906101f291906119d8565b610789565b6040516102049190611b72565b60405180910390f35b610227600480360381019061022291906119d8565b610854565b6040516102349190611995565b60405180910390f35b610245610870565b6040516102529190611aa0565b60405180910390f35b61027560048036038101906102709190611b8b565b610876565b005b61027f610898565b005b61029b60048036038101906102969190611b8b565b610a09565b005b6102b760048036038101906102b29190611a5d565b610a84565b6040516102c49190611aa0565b60405180910390f35b6102d5610aca565b6040516102e29190611c24565b60405180910390f35b61030560048036038101906103009190611c67565b610aee565b005b610321600480360381019061031c9190611a5d565b610b4a565b60405161032e9190611aa0565b60405180910390f35b610351600480360381019061034c9190611b8b565b610b5f565b60405161035e9190611964565b60405180910390f35b61036f610bc2565b60405161037c9190611995565b60405180910390f35b61039f600480360381019061039a91906119d8565b610bc8565b6040516103b29796959493929190611ca1565b60405180910390f35b6103d560048036038101906103d09190611b8b565b610c31565b005b6103f160048036038101906103ec9190611b8b565b611002565b005b61040d60048036038101906104089190611d0e565b611024565b005b5f7f7965db0b000000000000000000000000000000000000000000000000000000007bffffffffffffffffffffffffffffffffffffffffffffffffffffffff1916827bffffffffffffffffffffffffffffffffffffffffffffffffffffffff1916148061048157506104808261138b565b5b9050919050565b7f68e79a7bf1e0bc45d0a330c573bc367f9cf464fd326078812f301165fbda4ef181565b5f5f1b6104b8816113f4565b6104c0611408565b5f60025f8481526020019081526020015f209050806006015f9054906101000a900460ff16610524576040517f08c379a000000000000000000000000000000000000000000000000000000000815260040161051b90611dcc565b60405180910390fd5b5f816006015f6101000a81548160ff0219169083151502179055505f816002015490505f82600201819055505f8111156105c6576105c5825f015f9054906101000a900473ffffffffffffffffffffffffffffffffffffffff16827f000000000000000000000000000000000000000000000000000000000000000073ffffffffffffffffffffffffffffffffffffffff1661142a9092919063ffffffff16565b5b837f7164902c8d40f328131ec374b0a2235a422206b30d176b713b5218e37a529d52826040516105f69190611aa0565b60405180910390a2505061060861147d565b5050565b5f5f1b610618816113f4565b610620611408565b5f73ffffffffffffffffffffffffffffffffffffffff168273ffffffffffffffffffffffffffffffffffffffff160361068e576040517f08c379a000000000000000000000000000000000000000000000000000000000815260040161068590611e34565b60405180910390fd5b5f60045490505f81116106d6576040517f08c379a00000000000000000000000000000000000000000000000000000000081526004016106cd90611e9c565b60405180910390fd5b5f60048190555061072883827f000000000000000000000000000000000000000000000000000000000000000073ffffffffffffffffffffffffffffffffffffffff1661142a9092919063ffffffff16565b8273ffffffffffffffffffffffffffffffffffffffff167f78473f3f373f7673597f4f0fa5873cb4d375fea6d4339ad6b56dbd411513cb3f8260405161076e9190611aa0565b60405180910390a25061077f61147d565b5050565b60045481565b610791611878565b60025f8381526020019081526020015f206040518060e00160405290815f82015f9054906101000a900473ffffffffffffffffffffffffffffffffffffffff1673ffffffffffffffffffffffffffffffffffffffff1673ffffffffffffffffffffffffffffffffffffffff1681526020016001820154815260200160028201548152602001600382015481526020016004820154815260200160058201548152602001600682015f9054906101000a900460ff1615151515815250509050919050565b5f5f5f8381526020019081526020015f20600101549050919050565b60015481565b61087f82610854565b610888816113f4565b6108928383611497565b50505050565b6108a0611408565b5f60035f3373ffffffffffffffffffffffffffffffffffffffff1673ffffffffffffffffffffffffffffffffffffffff1681526020019081526020015f205490505f8111610923576040517f08c379a000000000000000000000000000000000000000000000000000000000815260040161091a90611f04565b60405180910390fd5b5f60035f3373ffffffffffffffffffffffffffffffffffffffff1673ffffffffffffffffffffffffffffffffffffffff1681526020019081526020015f20819055506109b033827f000000000000000000000000000000000000000000000000000000000000000073ffffffffffffffffffffffffffffffffffffffff1661142a9092919063ffffffff16565b3373ffffffffffffffffffffffffffffffffffffffff167fe64799e036cf6322d0c3b6d11f4e2fc9d1bd9bb5938dd3d6835921a427c89b8f826040516109f69190611aa0565b60405180910390a250610a0761147d565b565b610a11611580565b73ffffffffffffffffffffffffffffffffffffffff168173ffffffffffffffffffffffffffffffffffffffff1614610a75576040517f6697b23200000000000000000000000000000000000000000000000000000000815260040160405180910390fd5b610a7f8282611587565b505050565b5f60035f8373ffffffffffffffffffffffffffffffffffffffff1673ffffffffffffffffffffffffffffffffffffffff1681526020019081526020015f20549050919050565b7f000000000000000000000000000000000000000000000000000000000000000081565b5f5f1b610afa816113f4565b6103e8821115610b3f576040517f08c379a0000000000000000000000000000000000000000000000000000000008152600401610b3690611f6c565b60405180910390fd5b816001819055505050565b6003602052805f5260405f205f915090505481565b5f5f5f8481526020019081526020015f205f015f8373ffffffffffffffffffffffffffffffffffffffff1673ffffffffffffffffffffffffffffffffffffffff1681526020019081526020015f205f9054906101000a900460ff16905092915050565b5f5f1b81565b6002602052805f5260405f205f91509050805f015f9054906101000a900473ffffffffffffffffffffffffffffffffffffffff1690806001015490806002015490806003015490806004015490806005015490806006015f9054906101000a900460ff16905087565b7f68e79a7bf1e0bc45d0a330c573bc367f9cf464fd326078812f301165fbda4ef1610c5b816113f4565b610c63611408565b5f73ffffffffffffffffffffffffffffffffffffffff168273ffffffffffffffffffffffffffffffffffffffff1603610cd1576040517f08c379a0000000000000000000000000000000000000000000000000000000008152600401610cc890611fd4565b60405180910390fd5b5f60025f8581526020019081526020015f209050806006015f9054906101000a900460ff16610d35576040517f08c379a0000000000000000000000000000000000000000000000000000000008152600401610d2c9061203c565b60405180910390fd5b8060040154816005015410610d7f576040517f08c379a0000000000000000000000000000000000000000000000000000000008152600401610d76906120a4565b60405180910390fd5b806003015481600201541015610dca576040517f08c379a0000000000000000000000000000000000000000000000000000000008152600401610dc19061210c565b60405180910390fd5b8060030154816002015f828254610de19190612157565b925050819055506001816005015f828254610dfc919061218a565b92505081905550806003015460035f8573ffffffffffffffffffffffffffffffffffffffff1673ffffffffffffffffffffffffffffffffffffffff1681526020019081526020015f205f828254610e53919061218a565b925050819055508273ffffffffffffffffffffffffffffffffffffffff16847f51788f95ea664d0deb5030b8e744b077d15d45b42d34aa7e0592cfb493c1559483600301548460050154604051610eab9291906121bd565b60405180910390a38273ffffffffffffffffffffffffffffffffffffffff167f59d9f8b94d1de65b8eeb1b14e24d5d70c2782e96b3abef17ba687f3ee33a754a8260030154604051610efd9190611aa0565b60405180910390a28060040154816005015403610ff4575f816006015f6101000a81548160ff0219169083151502179055505f81600201541115610ff3575f816002015490505f8260020181905550610fb9825f015f9054906101000a900473ffffffffffffffffffffffffffffffffffffffff16827f000000000000000000000000000000000000000000000000000000000000000073ffffffffffffffffffffffffffffffffffffffff1661142a9092919063ffffffff16565b847f7164902c8d40f328131ec374b0a2235a422206b30d176b713b5218e37a529d5282604051610fe99190611aa0565b60405180910390a2505b5b50610ffd61147d565b505050565b61100b82610854565b611014816113f4565b61101e8383611587565b50505050565b61102c611408565b5f831161106e576040517f08c379a00000000000000000000000000000000000000000000000000000000081526004016110659061222e565b60405180910390fd5b5f82116110b0576040517f08c379a00000000000000000000000000000000000000000000000000000000081526004016110a790612296565b60405180910390fd5b5f81116110f2576040517f08c379a00000000000000000000000000000000000000000000000000000000081526004016110e9906122fe565b60405180910390fd5b60025f8581526020019081526020015f206006015f9054906101000a900460ff1615611153576040517f08c379a000000000000000000000000000000000000000000000000000000000815260040161114a90612366565b60405180910390fd5b5f612710600154856111659190612384565b61116f91906123f2565b90505f818561117e9190612157565b9050828461118c9190612384565b8110156111ce576040517f08c379a00000000000000000000000000000000000000000000000000000000081526004016111c59061246c565b60405180910390fd5b61121b3330877f000000000000000000000000000000000000000000000000000000000000000073ffffffffffffffffffffffffffffffffffffffff16611670909392919063ffffffff16565b8160045f82825461122c919061218a565b925050819055506040518060e001604052803373ffffffffffffffffffffffffffffffffffffffff1681526020018681526020018281526020018581526020018481526020015f81526020016001151581525060025f8881526020019081526020015f205f820151815f015f6101000a81548173ffffffffffffffffffffffffffffffffffffffff021916908373ffffffffffffffffffffffffffffffffffffffff1602179055506020820151816001015560408201518160020155606082015181600301556080820151816004015560a0820151816005015560c0820151816006015f6101000a81548160ff0219169083151502179055509050503373ffffffffffffffffffffffffffffffffffffffff16867fbb019c276745610d1f6247680bfc4d2a44cae4a074f4c836222501523e9453088787876040516113739392919061248a565b60405180910390a3505061138561147d565b50505050565b5f7f01ffc9a7000000000000000000000000000000000000000000000000000000007bffffffffffffffffffffffffffffffffffffffffffffffffffffffff1916827bffffffffffffffffffffffffffffffffffffffffffffffffffffffff1916149050919050565b61140581611400611580565b6116c5565b50565b611410611716565b600261142261141d611757565b611780565b5f0181905550565b6114378383836001611789565b61147857826040517f5274afe700000000000000000000000000000000000000000000000000000000815260040161146f91906124bf565b60405180910390fd5b505050565b600161148f61148a611757565b611780565b5f0181905550565b5f6114a28383610b5f565b6115765760015f5f8581526020019081526020015f205f015f8473ffffffffffffffffffffffffffffffffffffffff1673ffffffffffffffffffffffffffffffffffffffff1681526020019081526020015f205f6101000a81548160ff021916908315150217905550611513611580565b73ffffffffffffffffffffffffffffffffffffffff168273ffffffffffffffffffffffffffffffffffffffff16847f2f8788117e7eff1d82e926ec794901d17c78024a50270940304540a733656f0d60405160405180910390a46001905061157a565b5f90505b92915050565b5f33905090565b5f6115928383610b5f565b15611666575f5f5f8581526020019081526020015f205f015f8473ffffffffffffffffffffffffffffffffffffffff1673ffffffffffffffffffffffffffffffffffffffff1681526020019081526020015f205f6101000a81548160ff021916908315150217905550611603611580565b73ffffffffffffffffffffffffffffffffffffffff168273ffffffffffffffffffffffffffffffffffffffff16847ff6391f5c32d9c69d2a47ea670b442974b53935d1edc7fd64eb21e047a839171b60405160405180910390a46001905061166a565b5f90505b92915050565b61167e8484848460016117eb565b6116bf57836040517f5274afe70000000000000000000000000000000000000000000000000000000081526004016116b691906124bf565b60405180910390fd5b50505050565b6116cf8282610b5f565b6117125780826040517fe2517d3f0000000000000000000000000000000000000000000000000000000081526004016117099291906124d8565b60405180910390fd5b5050565b61171e61185c565b15611755576040517f3ee5aeb500000000000000000000000000000000000000000000000000000000815260040160405180910390fd5b565b5f7f9b779b17422d0df92223018b32b4d1fa46e071723d6817e2486d003becc55f005f1b905090565b5f819050919050565b5f5f63a9059cbb60e01b9050604051815f525f1960601c86166004528460245260205f60445f5f8b5af1925060015f511483166117dd5783831516156117d1573d5f823e3d81fd5b5f873b113d1516831692505b806040525050949350505050565b5f5f6323b872dd60e01b9050604051815f525f1960601c87166004525f1960601c86166024528460445260205f60645f5f8c5af1925060015f5114831661184957838315161561183d573d5f823e3d81fd5b5f883b113d1516831692505b806040525f606052505095945050505050565b5f600261186f61186a611757565b611780565b5f015414905090565b6040518060e001604052805f73ffffffffffffffffffffffffffffffffffffffff1681526020015f81526020015f81526020015f81526020015f81526020015f81526020015f151581525090565b5f5ffd5b5f7fffffffff0000000000000000000000000000000000000000000000000000000082169050919050565b6118fe816118ca565b8114611908575f5ffd5b50565b5f81359050611919816118f5565b92915050565b5f60208284031215611934576119336118c6565b5b5f6119418482850161190b565b91505092915050565b5f8115159050919050565b61195e8161194a565b82525050565b5f6020820190506119775f830184611955565b92915050565b5f819050919050565b61198f8161197d565b82525050565b5f6020820190506119a85f830184611986565b92915050565b6119b78161197d565b81146119c1575f5ffd5b50565b5f813590506119d2816119ae565b92915050565b5f602082840312156119ed576119ec6118c6565b5b5f6119fa848285016119c4565b91505092915050565b5f73ffffffffffffffffffffffffffffffffffffffff82169050919050565b5f611a2c82611a03565b9050919050565b611a3c81611a22565b8114611a46575f5ffd5b50565b5f81359050611a5781611a33565b92915050565b5f60208284031215611a7257611a716118c6565b5b5f611a7f84828501611a49565b91505092915050565b5f819050919050565b611a9a81611a88565b82525050565b5f602082019050611ab35f830184611a91565b92915050565b611ac281611a22565b82525050565b611ad181611a88565b82525050565b611ae08161194a565b82525050565b60e082015f820151611afa5f850182611ab9565b506020820151611b0d6020850182611ac8565b506040820151611b206040850182611ac8565b506060820151611b336060850182611ac8565b506080820151611b466080850182611ac8565b5060a0820151611b5960a0850182611ac8565b5060c0820151611b6c60c0850182611ad7565b50505050565b5f60e082019050611b855f830184611ae6565b92915050565b5f5f60408385031215611ba157611ba06118c6565b5b5f611bae858286016119c4565b9250506020611bbf85828601611a49565b9150509250929050565b5f819050919050565b5f611bec611be7611be284611a03565b611bc9565b611a03565b9050919050565b5f611bfd82611bd2565b9050919050565b5f611c0e82611bf3565b9050919050565b611c1e81611c04565b82525050565b5f602082019050611c375f830184611c15565b92915050565b611c4681611a88565b8114611c50575f5ffd5b50565b5f81359050611c6181611c3d565b92915050565b5f60208284031215611c7c57611c7b6118c6565b5b5f611c8984828501611c53565b91505092915050565b611c9b81611a22565b82525050565b5f60e082019050611cb45f83018a611c92565b611cc16020830189611a91565b611cce6040830188611a91565b611cdb6060830187611a91565b611ce86080830186611a91565b611cf560a0830185611a91565b611d0260c0830184611955565b98975050505050505050565b5f5f5f5f60808587031215611d2657611d256118c6565b5b5f611d33878288016119c4565b9450506020611d4487828801611c53565b9350506040611d5587828801611c53565b9250506060611d6687828801611c53565b91505092959194509250565b5f82825260208201905092915050565b7f426f756e7479457363726f773a20616c726561647920696e61637469766500005f82015250565b5f611db6601e83611d72565b9150611dc182611d82565b602082019050919050565b5f6020820190508181035f830152611de381611daa565b9050919050565b7f426f756e7479457363726f773a207a65726f20746f00000000000000000000005f82015250565b5f611e1e601583611d72565b9150611e2982611dea565b602082019050919050565b5f6020820190508181035f830152611e4b81611e12565b9050919050565b7f426f756e7479457363726f773a206e6f206665657300000000000000000000005f82015250565b5f611e86601583611d72565b9150611e9182611e52565b602082019050919050565b5f6020820190508181035f830152611eb381611e7a565b9050919050565b7f426f756e7479457363726f773a206e6f7468696e6720746f20636c61696d00005f82015250565b5f611eee601e83611d72565b9150611ef982611eba565b602082019050919050565b5f6020820190508181035f830152611f1b81611ee2565b9050919050565b7f426f756e7479457363726f773a2066656520746f6f20686967680000000000005f82015250565b5f611f56601a83611d72565b9150611f6182611f22565b602082019050919050565b5f6020820190508181035f830152611f8381611f4a565b9050919050565b7f426f756e7479457363726f773a207a65726f20776f726b6572000000000000005f82015250565b5f611fbe601983611d72565b9150611fc982611f8a565b602082019050919050565b5f6020820190508181035f830152611feb81611fb2565b9050919050565b7f426f756e7479457363726f773a20626f756e747920696e6163746976650000005f82015250565b5f612026601d83611d72565b915061203182611ff2565b602082019050919050565b5f6020820190508181035f8301526120538161201a565b9050919050565b7f426f756e7479457363726f773a20616c6c207461736b7320646f6e65000000005f82015250565b5f61208e601c83611d72565b91506120998261205a565b602082019050919050565b5f6020820190508181035f8301526120bb81612082565b9050919050565b7f426f756e7479457363726f773a2066756e6473206578686175737465640000005f82015250565b5f6120f6601d83611d72565b9150612101826120c2565b602082019050919050565b5f6020820190508181035f830152612123816120ea565b9050919050565b7f4e487b71000000000000000000000000000000000000000000000000000000005f52601160045260245ffd5b5f61216182611a88565b915061216c83611a88565b92508282039050818111156121845761218361212a565b5b92915050565b5f61219482611a88565b915061219f83611a88565b92508282019050808211156121b7576121b661212a565b5b92915050565b5f6040820190506121d05f830185611a91565b6121dd6020830184611a91565b9392505050565b7f426f756e7479457363726f773a207a65726f20616d6f756e74000000000000005f82015250565b5f612218601983611d72565b9150612223826121e4565b602082019050919050565b5f6020820190508181035f8301526122458161220c565b9050919050565b7f426f756e7479457363726f773a207a65726f20726577617264000000000000005f82015250565b5f612280601983611d72565b915061228b8261224c565b602082019050919050565b5f6020820190508181035f8301526122ad81612274565b9050919050565b7f426f756e7479457363726f773a207a65726f207461736b7300000000000000005f82015250565b5f6122e8601883611d72565b91506122f3826122b4565b602082019050919050565b5f6020820190508181035f830152612315816122dc565b9050919050565b7f426f756e7479457363726f773a206461746173657420657869737473000000005f82015250565b5f612350601c83611d72565b915061235b8261231c565b602082019050919050565b5f6020820190508181035f83015261237d81612344565b9050919050565b5f61238e82611a88565b915061239983611a88565b92508282026123a781611a88565b915082820484148315176123be576123bd61212a565b5b5092915050565b7f4e487b71000000000000000000000000000000000000000000000000000000005f52601260045260245ffd5b5f6123fc82611a88565b915061240783611a88565b925082612417576124166123c5565b5b828204905092915050565b7f426f756e7479457363726f773a20696e73756666696369656e742066756e64735f82015250565b5f612456602083611d72565b915061246182612422565b602082019050919050565b5f6020820190508181035f8301526124838161244a565b9050919050565b5f60608201905061249d5f830186611a91565b6124aa6020830185611a91565b6124b76040830184611a91565b949350505050565b5f6020820190506124d25f830184611c92565b92915050565b5f6040820190506124eb5f830185611c92565b6124f86020830184611986565b939250505056fea264697066735822122057b1a88c7271fc4a6ff9ea150f15a68441148b25df4834a484946081ff2ae8c964736f6c634300081e0033","linkReferences":{}},"methodIdentifiers":{"DEFAULT_ADMIN_ROLE()":"a217fddf","ORACLE_ROLE()":"07e2cea5","bounties(bytes32)":"bf5522da","claimBalance()":"30509bca","closeBounty(bytes32)":"10d598f2","depositBounty(bytes32,uint256,uint256,uint256)":"f24d7a8d","distributePayment(bytes32,address)":"c4c25001","feeBps()":"24a9d853","getBounty(bytes32)":"2417395c","getRoleAdmin(bytes32)":"248a9ca3","grantRole(bytes32,address)":"2f2ff15d","hasRole(bytes32,address)":"91d14854","pendingBalance(address)":"3736f85d","protocolFees()":"1ad8b03b","renounceRole(bytes32,address)":"36568abe","revokeRole(bytes32,address)":"d547741f","setFeeBps(uint256)":"72c27b62","supportsInterface(bytes4)":"01ffc9a7","usdc()":"3e413bee","withdrawFees(address)":"164e68de","workerBalance(address)":"78904a35"},"id":36}